:020000040800F2
:10000000F80700209D010008CD090008C509000877
:10001000C9090008550600084D0E00080000000040
:10002000000000000000000000000000010B0008BC
:1000300059060008000000005D0A00086D0B00086A
:10004000B7010008B7010008B7010008B7010008B0
:10005000B7010008B7010008B7010008B7010008A0
:10006000B7010008B7010008B7010008B701000890
:10007000B7010008B7010008B7010008B701000880
:10008000B7010008B7010008B7010008B701000870
:10009000B7010008B7010008B7010008B701000860
:1000A000B7010008B7010008B7010008B701000850
:1000B000B7010008B7010008D90B0008B701000814
:1000C000B7010008B7010008B7010008B701000830
:1000D000B7010008B7010008B7010008B701000820
:1000E0005D060008B7010008B7010008B701000865
:1000F000B7010008B7010008B7010008B701000800
:10010000B7010008B7010008B7010008B7010008EF
:10011000B7010008B7010008B7010008B7010008DF
:10012000B7010008B7010008B7010008B7010008CF
:10013000B7010008B7010008B7010008B7010008BF
:10014000B7010008B7010008B7010008B7010008AF
:10015000B7010008B7010008B7010008B70100089F
:10016000B7010008B7010008B7010008B70100088F
:10017000B7010008B7010008B7010008B70100087F
:10018000B7010008B7010008DFF80CD000F002FA50
:100190000048004771310008F807002006488047F2
:1001A00006480047FEE7FEE7FEE7FEE7FEE7FEE75C
:1001B000FEE7FEE7FEE7FEE7710B00088901000895
:1001C000D2B201E000F8012B491EFBD27047002299
:1001D000F6E710B513460A4604461946FFF7F0FF46
:1001E000204610BD2DE9FE4F804681EA0300C00F76
:1001F0000C46009021F0004123F00045B8EB0200CE
:10020000A94105D24046214690461C460B4602466F
:1002100023F00040104347D0270DC7F30A00C3F373
:100220000A510290401A019040286BDAC3F3130080
:1002300040F4801B0098924620B10023D2EB030AC1
:1002400063EB0B0B01985946C0F14002504600F099
:1002500012F906460D4650465946019A00F02AF911
:1002600010EB08006141002487EA115284EAE77329
:100270001A4340D0009A62B3019A012A4FEA07520A
:1002800015DC001B61EB02014FF0004202EA07524D
:10029000CDE90042001C41F5801132462B4600F0AA
:1002A0002AF903B0BDE8F08F40462146F9E7001B6C
:1002B00061EB0201001C41F5801300185B4120181E
:1002C000A2F5001747EB030140EAD570B6196D415E
:1002D00011E06D084FEA360645EAC0754FEA07524D
:1002E000001B61EB0201001C41F5801149084FEA37
:1002F00030000019514132462B4603B0BDE8F04FA3
:1003000000F0EAB80098012240000023D0EB02027E
:1003100063EBE073009821464FEAE074B8EB00000D
:1003200061EB0401E9E783F000435BE781F0004102
:1003300058E72DE9FE4F81EA030404F0004421F060
:10034000004100944FF0000B23F0004350EA0104F9
:100350005ED052EA03045BD0C3F30A54C1F30A55DA
:100360002C44A4F2F3340194A0FB0254C1F3130112
:1003700041F48011C3F3130343F4801301FB0244DF
:1003800000FB034E840A970A44EA815447EA8357E4
:10039000A4FB076802958D0A05FB07854FEA932C9D
:1003A00004FB0C542705029D4FEA065847EA16370E
:1003B000B5EB08056EEB070C870E920E47EA811726
:1003C00042EA8312A7FB0201B6EB0B0164EB0004C7
:1003D0002B0D43EA0C335E1844EB1C50DA465146B1
:1003E000E7FB0201C5F313044FEA0B3343EA14534E
:1003F0004FEA0432019C43EA0603A4F10C04029480
:10040000009CCDE900B400F076F803B0BDE8F08FB1
:1004100000200146F9E70EB5C10F80EAE0700844FC
:10042000CA07002140F233438DE80E000A460B460E
:1004300000F061F803B000BD70B5C1F30A5201F0DD
:1004400000450024C1F3130140F2FF3341F4801151
:100450009A4201DA002070BD40F233439A42A2F280
:10046000334203DC524200F015F800E090402C4388
:10047000F1D0404270BD202A04DB203A00FA02F19C
:10048000002070479140C2F1200320FA03F3194382
:1004900090407047202A04DB203A21FA02F0002124
:1004A000704721FA02F3D040C2F120029140084384
:1004B00019467047202A06DBCB17203A41FA02F092
:1004C00043EAE07306E041FA02F3D040C2F12002B1
:1004D000914008431946704710B5141E73F100048B
:1004E00008DA401C41F1000192185B411A4301D126
:1004F00020F0010010BD2DE9F04D92469B4611B150
:10050000B1FA81F202E0B0FA80F220329046FFF7B1
:10051000B2FF04460F4640EA0A0041EA0B01534687
:100520005A46084313D0114653EA010019D0C8F1C6
:1005300040025046FFF7AEFF05460E46504659466C
:100540004246FFF798FF084305D0012004E020460B
:100550003946BDE8F08D0020054346EAE0762C439D
:1005600037430A986305E40AA0EB08000022FD0A5D
:1005700044EA47540A3002D500200146E9E7010564
:1005800010196941DDE9084500196941BDE8F04DE0
:10059000A2E70000064C074D06E0E06840F00103CA
:1005A00094E8070098471034AC42F6D3FFF7F0FD0B
:1005B000BC490008DC49000821B1826842F0010210
:1005C000826003E0826822F00102826070470000CE
:1005D0000021084A1168084A1140D0E900231A4353
:1005E00083681A43C3681A431143044AC2F80413C8
:1005F0007047000004230140E030FCFF0020014070
:1006000030B50246002000235068104C20400D7980
:100610000C6844EA05242043506090680C4C20404C
:10062000D1E903542C438D682C434D7944EA4504A9
:1006300020439060D06A20F470000C7D641EE4B208
:10064000234340EA0350D06230BD0000FFFEFFFCB0
:10065000FDF7FFC000BFFEE77047000010B54FF484
:10066000805000F035F840B14FF4805000F02AF887
:1006700012480068401C114908604FF4005000F017
:1006800027F840B14FF4005000F01CF80C48006807
:10069000401C0B4908604FF4804000F019F818B175
:1006A0004FF4804000F00EF84FF4004000F010F8D6
:1006B00018B14FF4004000F005F810BDA400002070
:1006C000A80000200149086070470000143C014068
:1006D00001460020034A12680A400AB1012000E0E6
:1006E00000207047143C0140002123498279002AF0
:1006F0003AD00A46126803689A430B461A600A1DEC
:10070000126803689A430B1D1A60027911440A6843
:1007100003681A430A60184A0832126803689A4349
:10072000154B08331A601A1D126803689A43124B5E
:100730000C331A604279102A0ED11A1F126803680E
:100740001A430D4B08331A601A1D126803681A43C6
:10075000094B0C331A600DE00749427911440A68CD
:1007600003681A430A6005E0027911440A680368C5
:100770009A430A6070470000003C014051B182007A
:10078000A2F1C042126842F001038200A2F1C0420D
:10079000136009E08200A2F1C0421268034B1A40C4
:1007A0008300A3F1C0431A6070470000FEFF0F00F2
:1007B00030B50021002200230468A400A4F1C04445
:1007C0002168424C2140D0E901452C43C5682C43A7
:1007D00005692C4345692C4385692C43C5692C4325
:1007E000056A2C43456A2C43856A2C43C56A2C4311
:1007F000056B2C4321430468A400A4F1C04421608C
:100800008468082C0BD10468A400A4F1C0442468B7
:1008100044F040050468A400A4F1C04425600468C5
:10082000641CA400A4F1C044226802F04042446B5E
:100830002468456B6D6844EA0514456BAD6844EA6D
:100840000524456BAD8944EA0544456B2D8A44EA8D
:100850000554456B2D7D44EA0564456BAD692C4319
:1008600022430468641CA400A4F1C0442260C46A4A
:10087000B4F5804F20D10468A400A4F1C044D4F89A
:100880000431134C2340846B2468856B6D6844EA03
:100890000514856BAD6844EA0524856BAD8944EA8F
:1008A0000544856BAD692C4323430468A400A4F17F
:1008B000C044C4F8043107E06FF070450468A40038
:1008C000A4F1C044C4F8045130BD00008000F7FF1B
:1008D0000000F0CFF0B50A4600210023002400BF3D
:1008E0003DE0012505FA01F3156805EA03049C4281
:1008F00034D105684F000326BE40B5430560157925
:100900004E00B5400668354305601579012D02D0CB
:100910001579022D16D185684F000326BE40B543D8
:10092000856055794E00B5408668354385604568D9
:1009300001268E40B5434560456896798E40B6B233
:1009400035434560C5684F000326BE40B543C560CA
:10095000D5794E00B540C6683543C560491C10299D
:10096000BFD3F0BDF0B5002300244D07ED0E02FA11
:1009700005F3CE1000F1200555F826504E07F70E6E
:100980000F26BE40B543CF1000F1200646F8275091
:10099000CE1000F1200555F8265045EA0304CE108C
:1009A00000F1200545F82640F0BD024600201369FD
:1009B0000B400BB1012000E00020704741837047DD
:1009C0000183704700BFFEE700BFFEE770470000ED
:1009D00070B5002100230F22C4781CB3174C246883
:1009E00004F4E064C4F5E064C4F30721C1F1040435
:1009F000E3B20A4144789C40E1B284781440214338
:100A00000C07210E0E4C05786155047804F01F0583
:100A10000124AC4005786D11AD0005F1E025C5F865
:100A2000004109E0047804F01F050124AC40054DA5
:100A30000678761145F8264070BD00000CED00E008
:100A400000E400E080E100E002490143024A116055
:100A5000704700000000FA050CED00E07047000050
:100A600029B1064A12680243044B1A6004E0034AA3
:100A700012688243014B1A60704700003038024010
:100A800029B1064A12680243044B1A6004E0034A83
:100A900012688243014B1A607047000038380240E8
:100AA00029B1064A12680243044B1A6004E0034A63
:100AB00012688243014B1A607047000040380240C0
:100AC00029B1064A12680243044B1A6004E0034A43
:100AD00012688243014B1A6070470000443802409C
:100AE00029B1064A12680243044B1A6004E0034A23
:100AF00012688243014B1A6070470000243802409C
:100B00007047000030B500228B071C0F0F2303FA3B
:100B100004F20B4B8C1053F824309343084C8D1087
:100B200044F8253023468C1053F824308C07240FCA
:100B300000FA04F42343024C8D1044F8253030BDF4
:100B400008380140042808D14FF0E021096941F03C
:100B500004014FF0E022116107E04FF0E021096944
:100B600021F004014FF0E02211617047704700004E
:100B700010B51548006840F4700013490860134828
:100B8000006840F001001149086000200F49083159
:100B900008600E4800680E4908400C4908600D487E
:100BA000091D0860081F006820F48020091F0860E4
:100BB000002006490C31086000F020FA4FF0006078
:100BC00001498039086010BD88ED00E0003802401E
:100BD000FFFFF6FE1030002410B50121054800F09B
:100BE0001AF828B10121034800F006F800F07EFA57
:100BF00010BD000000080040CA430282704721B1C6
:100C0000028842F00102028004E002884FF6FE737F
:100C10001A400280704730B50246002000230024AD
:100C2000158A05EA0103958905EA010413B10CB19F
:100C3000012000E0002030BD1AB183890B4383817D
:100C400002E083898B4383817047000070B50024E4
:100C500000220023058C4FF6EF7635400584028C88
:100C60008388048B48F6FF752C404FF6FF452C40D7
:100C70000D884FF6FF7606EA05252C434FF6DF7503
:100C80002A408D8906EA05152A434D8806EA05158E
:100C90002A43154DA84202D0144DA8421DD14FF64B
:100CA0007F752A40CD894FF6FF7606EA05152A435F
:100CB0004FF6BF752A408D8806EA05152A434FF680
:100CC000FF352B404FF2FF752B400D8A06EA850554
:100CD0002B434D8A06EA85052B43838004838D6868
:100CE0008563028470BD00000000014000040140E3
:100CF0000A460021018B4FF2FF7319404FF6FF7334
:100D000003EA0223194301837047000070B50024F1
:100D100000220023058C4FF6FF6635400584028CC7
:100D20008388848B4FF68F752C404FF6FC752C40D2
:100D30000D882C434FF6FF552A408D894FF6FF76DC
:100D400006EA05252A434D8806EA05252A43154D5E
:100D5000A84202D0144DA8421DD14FF2FF752A407F
:100D6000CD894FF6FF7606EA05252A434FF6FF3573
:100D70002A408D8806EA05252A434EF6FF752B404A
:100D80004DF6FF752B400D8A06EA05152B434D8A5B
:100D900006EA05152B43838084838D68C56302842E
:100DA00070BD000000000140000401400A4600211F
:100DB000818B4FF6F773194011438183704781632C
:100DC0007047C1637047000000220288184B9842A8
:100DD0000ED0184B98420BD0B0F1804F08D0164B74
:100DE000984205D0154B984202D0154B984204D139
:100DF0004FF68F731A404B881A43124B984207D014
:100E0000114B984204D04FF6FF431A400B891A4306
:100E100002804B68C3620B880385054B984202D061
:100E2000044B984201D18B7A038601238382704759
:100E300000000140000401400004004000080040A0
:100E4000000C0040001000400014004000BFFEE70E
:100E50000FB4F0B52DED028B81B09FED420BB0EEDB
:100E6000408AF0EE608A002500260027002409A8A9
:100E70000090089C6CE02078252864D1601C044612
:100E80000078642820D00CDC58284CD004DC2528BD
:100E900051D0422854D13DE062283AD063284FD146
:100EA00008E0662819D069280FD0732829D078283F
:100EB00046D137E0009810F8041BCFB20090002113
:100EC000384602F01BF83BE000BF009820C80090B5
:100ED0000021284600F02FFB32E00098C01D20F0D2
:100EE00007000090B0EC020BB0EE408AF0EE608A92
:100EF00000900020B0EE480AF0EE680A00F0F8FD1D
:100F00001EE0009840C800900021304600F066FBCB
:100F100016E000BF009820C800900021284600F08D
:100F2000E9FA0DE000BF009820C800900021284693
:100F300000F027FB04E00021252001F0DFFF00BFC7
:100F400000BF641C04E014F8010B002101F0D6FF7F
:100F5000207800288FD101B0BDEC028BF0BC5DF889
:100F600014FB000000000000000000007047704704
:100F700010B56FF00400FFF7E5FD15200749087074
:100F80000846007800EB4001C1EBC0104FF6FF713E
:100F900001EAC0000249088010BD000000000020E6
:100FA0000200002010B501F0C7FF4FF400410848CF
:100FB00000F000FF1021074800F0FCFE4021064829
:100FC00000F0F8FE8021054800F0F4FE10BD00009E
:100FD000001802400000024000080240000C0240DD
:100FE00010B5044604480480052001F045FE02487F
:100FF000801C008810BD0000FE1F006C0CB5002096
:10100000019000903448006840F480303249086014
:1010100000BF3148006800F4003000900198401C87
:101020000190009818B90198B0F5A04FF1D12A4865
:10103000006800F4003010B10120009001E00020B1
:1010400000900098012846D123484030006840F0C5
:1010500080502149403108602048006840F44040F9
:101060001E4908601C48083000681B4908310860A8
:101070000846006840F4004008600846006840F4F4
:10108000A05008601648091F0860081F006840F05B
:101090008070091F086000BF0F48006800F00070F2
:1010A0000028F9D040F205700E4908600A4808305F
:1010B000006820F00300084908310860084600680D
:1010C00040F00200086000BF03480830006800F0EC
:1010D0000C000828F8D10CBD003802400070004018
:1010E00008544007003C0240704700001048006868
:1010F000401C0F4908600F480068401C0D490860FB
:101100000D480068401C0C4908600C480068401CF1
:101110000A4908600A480068401C094908600948F3
:101120000068401C074908600120074908707047A3
:101130002000002024000020280000202C00002097
:10114000340000203000002038000020024A1080C7
:10115000921C118070470000FE1F006C10B54FF408
:101160000071114800F0C5FF4FF400610E4800F017
:10117000C0FF40210D4800F0BCFF20210C4800F0CA
:10118000B8FF40210A4800F0B4FF4021094800F0B0
:10119000B0FF4FF48071074800F0ABFF082106480C
:1011A00000F0A7FF10BD000000080240000402404C
:1011B0000010024000000240000C024000B587B061
:1011C00002208DF8180000208DF81A008DF81B0001
:1011D00003208DF81900C001059005A91648FFF7F6
:1011E00079FB022207211448FFF7BCFB02220821E9
:1011F0001148FFF7B7FB6020ADF800000020ADF804
:1012000010000120ADF802000020ADF80400ADF898
:101210000C00029008210948FFF76AFD694607485B
:10122000FFF714FD08210548FFF7C0FD6946034894
:10123000FFF76CFD07B000BD00080240000400404D
:1012400010B50C480068401C0A49086000200A4993
:1012500008600A480068401C0849086005480068A2
:1012600007490968884202D100200249086000F05D
:1012700009F810BD44000020400000204800002074
:1012800064000020F8B54FF6FF70104C0090256800
:101290000F4C2468641C0F4E366804FB0654A3B23E
:1012A0000D4C24880D4D2D882C44A2B2074C256886
:1012B000074C2468074E366804FB0654A1B2064C5E
:1012C0002488A0B200F08CFDF8BD00004C00002086
:1012D000440000205C000020500000205800002046
:1012E00030B504460D462946204600F063F800F06C
:1012F00063FE024800880249088030BD700000206B
:101300000020006C2DE9FF4F84B081468A46002002
:10131000039002900698A0EB09050798A0EB0A0637
:10132000CDF80490CDF800A0002D01DD012705E0E7
:101330000DB9002702E04FF0FF376D42002E02DDAD
:101340004FF0010806E016B94FF0000802E04FF038
:10135000FF387642B54201DD2C4600E034464FF0BE
:10136000000B21E0009A91B2019A90B2FFF7B8FF0A
:101370000398284403900298304402900398A042B6
:1013800005DD0398001B03900198384401900298F2
:10139000A04205DD0298001B029000984044009096
:1013A0000BF101001FFA80FB601C8345DADD08B0F9
:1013B000BDE8F08F10B503460C461648008849F288
:1013C0004131884212D1144800881449088018120B
:1013D000891C0880D8B2088011480088891E0880BE
:1013E0002012891C0880E0B2088012E00D480078C5
:1013F000012804D10C480088401EC01A83B2194647
:1014000005480088FFF7A2FE214605480088FFF73F
:101410009DFE10BD740000207E000020FE1F006CA9
:101420008000002076000020780000200FB52348BF
:10143000012123A20423CDE90032CDE902100B469D
:101440000A461021204800F0CDFE1C4801211FA2B1
:101450000423CDE90032CDE90210642300221021DB
:101460001B4800F0BFFE1B4801211BA20823CDE949
:101470000032CDE902100B4611221021184800F06D
:10148000B1FE0E48012117A20323CDE90032CDE9B8
:1014900002100B4626221021134800F0A3FE074835
:1014A000012112A20323CDE90032CDE902100B463F
:1014B000462210210E4800F095FE0FBD371500089A
:1014C0004952205220000000B00000204C200000B3
:1014D000AC000020F514000853454E200000000029
:1014E0008D0000206C7300009C00002072730000CF
:1014F000A000002070B588B004460E462021684642
:10150000FEF765FE002500BF04F0010228466D1CB1
:101510000DF8002060100400F6D106E01DF805105B
:101520003031C8B2314601F0E9FC2800A5F10105CF
:10153000F4D108B070BD70B588B004460E462021C5
:101540006846FEF744FE002500BF0A2094FBF0F138
:1015500000FB11403030C2B228466D1C0DF800204F
:101560000A2094FBF0F00400EFD104E01DF8050020
:10157000314601F0C3FC2800A5F10105F6D108B001
:1015800070BD70B586B005460E46142101A8FEF761
:101590001EFE002400BF05F00F022046641C01A9B6
:1015A0000A5428110500F6D112E001A8005D0A28AE
:1015B00007DA01A9095D3031C8B2314601F09EFC5D
:1015C00006E001A9095D3731C8B2314601F096FC49
:1015D0002000A4F10104E8D106B070BD70B5044646
:1015E0000D4604E014F8010B294601F087FC207831
:1015F0000028F7D170BD000008200021304A11609A
:10160000304A116010210C2904D0102917D0182954
:101610003FD129E02C4A1168CA1701EB127212114E
:101620002A4B1A602A49096891FBF0F1294A116096
:101630000C21294A11600621284A11603EE0224A05
:101640001168CA1701EB12721211204B1A6020495F
:10165000096891FBF0F11F4A116010211E4A1160C8
:1016600008211E4A116029E0174A1168CA1701EBC8
:1016700012721211154B1A601549096891FBF0F1AD
:10168000144A11601821144A11600C21134A116088
:1016900014E00D4A1168CA1701EB127212110B4BBC
:1016A0001A600B49096891FBF0F10A4A11600C219C
:1016B000094A11600621094A116000BF00BF704746
:1016C000400000204400002054000020640000205E
:1016D00058000020680000205C000020600000200E
:1016E0002DE9F84F81460E4617461C4600960C2CF5
:1016F00001D198460AE0102C01D1A04606E0182C32
:1017000002D14FF0240801E0BDE8F88FA7F12000D6
:10171000C7B2002553E00C2C07D107EB47002A493C
:1017200001EB800010F805A012E0102C05D127482D
:1017300000EB071010F805A00AE0182C07D107EB02
:10174000C700234901EB800010F805A000E0DBE7AB
:101750004FF0000B2DE00AF0800030B11D480288E8
:101760003146484600F0E2FB05E01B48028831465E
:10177000484600F0DBFB4FEA4A604FEA106A701CF3
:1017800086B216480088864200DBBDE70098301A12
:10179000A0420AD1009E09F101001FFA80F9104809
:1017A0000088814500DBAFE706E00BF1010000F0A7
:1017B000FF0BBBF1080FCEDB00BF681CC5B245456F
:1017C000A9DB00BFA0E70000FC310008703600086C
:1017D000603C000870000020720000207A000020A9
:1017E0007800002010B504461CBB00202449087076
:1017F000F020244908804FF4A07023490880234832
:10180000008849F24131884209D12C2020490880C2
:101810002A20204908802B201F4908802CE0222004
:101820001B49088020201B49088021201A49088074
:1018300022E00120124908704FF4A070114908807D
:10184000F020114908801148008849F2413188424E
:1018500009D12C200E4908802A200E4908802B200F
:101860000D49088008E02220094908802120094903
:101870000880202008490880002000F087F910BD6A
:1018800076000020780000207A00002074000020FC
:101890007C0000207E0000208000002000B59FB06A
:1018A00001217820FFF7DCF801210846FFF7E8F86E
:1018B0004FF480601D9001208DF8780000208DF895
:1018C0007A0002208DF8790001208DF87B001DA997
:1018D0007748FEF7FFFF4CF233701D9002208DF821
:1018E000780000208DF87A0003208DF8790001201F
:1018F0008DF87B001DA96F48FEF7ECFF4FF6807056
:101900001D9002208DF8780000208DF87A000320C9
:101910008DF8790001208DF87B001DA96648FEF73F
:10192000D9FF04201D9002208DF8780000208DF84A
:101930007A0003208DF8790001208DF87B001DA925
:101940005E48FEF7C7FF4FF480501D9002208DF8CF
:10195000780000208DF87A0003208DF879000120AE
:101960008DF87B001DA95548FEF7B4FF0C2200211D
:101970005048FEF7F7FF0C2201214E48FEF7F2FF18
:101980000C2204214B48FEF7EDFF0C2205214948AB
:10199000FEF7E8FF0C2208214648FEF7E3FF0C2281
:1019A00009214448FEF7DEFF0C220A214148FEF7D8
:1019B000D9FF0C220E213F48FEF7D4FF0C220F2145
:1019C0003C48FEF7CFFF0C2207213B48FEF7CAFF39
:1019D0000C2208213848FEF7C5FF0C2209213648A1
:1019E000FEF7C0FF0C220A213348FEF7BBFF0C2292
:1019F0000B213148FEF7B6FF0C2211462E48FEF7A8
:101A0000B1FF0C220D212C48FEF7ACFF0C220E2159
:101A10002948FEF7A7FF0C220F212748FEF7A2FF57
:101A20000C2202212548FEF79DFF0C221146234877
:101A3000FEF798FF0F200790002008903C200990A7
:101A400000200A900B900C900D900920009000202F
:101A500001900820029000200390049005900690C9
:101A600006200E9000200F90109010201190002062
:101A7000129014901390159016904FF48050179078
:101A8000002018904FF48040199000201A9007A869
:101A90001B90CDF870D00EA8FEF78AFE012106201B
:101AA000FEF76CFE322001F0CBF81FB000BD000045
:101AB00000140240000C02400010024000180240D6
:101AC0002DE9F04105460C46277A626A02FB07F6CB
:101AD00006EBD672678807EB620290B2237A218800
:101AE0002A46FFF7FDFD606A401C6062BDE8F08198
:101AF00070B52DED048BB0EE408AF0EE608A04469E
:101B000051EC180BFEF798FC064621463046FFF7CD
:101B100012FD3046FEF77FFC41EC190B53EC182BFD
:101B2000FEF704FC41EC180B21462E2001F0E6F9EB
:101B30009FED090B53EC102B51EC180BFEF7F9FB42
:101B400041EC190BFEF778FC05462146FFF7F3FC44
:101B5000BDEC048B70BD00000000000000408F4011
:101B6000064800680649086006480068064908609B
:101B7000002002490860034908607047A400002063
:101B80009C000020A8000020A000002070B50446A2
:101B90000023002654480078012818D1082C15D2BB
:101BA000DFE804F00406080A0C0E101206240DE00B
:101BB00007240BE0042409E0052407E0012405E0E4
:101BC000002403E0032401E0022400BF00BF4748D3
:101BD000008849F2413188425ED1082C1CD2DFE8EE
:101BE00004F00406090C0F12151800BF14E043F0AE
:101BF000800311E043F040030EE043F0C0030BE02C
:101C000043F0200308E043F0600305E043F0A00345
:101C100002E043F0E00300BF00BF362643F00803B4
:101C200019463046FFF792FA03F0200068B13048B9
:101C3000008830490988884207DA2D4805882D48F0
:101C400000882B4908802B4805802B4800882B49A9
:101C500008800020891C0880088025480088401ED4
:101C6000C0F30F20088022480078401EC0B20880D0
:101C700023480088891E08800020891C088008806D
:101C80001C480088401EC0F30F20088019480078C7
:101C9000401EC0B2088026E0082C1CD2DFE804F009
:101CA00004070A0D15180F1243F0300313E043F038
:101CB000100310E043F020030DE000BF0BE043F001
:101CC000180308E043F0080305E043F0380302E09E
:101CD00043F0280300BF00BF032643F48053194696
:101CE0003046FFF733FA70BD760000207400002004
:101CF000780000207A0000207E000020FE1F006C8B
:101D00008000002070B50446234800682349096814
:101D1000884201DDFFF794FAE01F07281FD2DFE8B1
:101D200000F004050B16191A1B0070BD1A48006854
:101D3000401E19490860F8E717490868C11700EB09
:101D40005171C910491CC900134A1160EDE7FFF732
:101D500077FAEAE7E9E7E8E7FFF772FAE5E7104A1A
:101D60001268104B1B68104D2D6803FB052291B2C1
:101D7000094A13681268521C074D2A600B4A126800
:101D80000B4D2D6803FB025290B210232246FFF741
:101D9000A7FC00BFC9E70000400000206800002049
:101DA0004C000020440000205C0000206000002067
:101DB000500000207CB505460C4601208DF804003B
:101DC00000208DF8060003208DF8050002208DF814
:101DD0000700009469462846FEF77CFD7CBD0000A4
:101DE0002DE9F04F05460E4617469846DDF824A02B
:101DF0004FF0000B781B401C1FFA80FB344613E0A9
:101E000021462846FFF7D6FA00F0D6F84FF0000931
:101E100006E00748A0F800A009F101001FFA80F9C8
:101E2000D945F6DB601C84B24445E9DDBDE8F08F9E
:101E30000020006C10B5044600206062204600F0CF
:101E4000C5F8207F10B1204600F008F9606910B194
:101E500060690068A061E06818B12146E068FFF79A
:101E6000BDFB2146226AA069904710BD00B585B030
:101E70000C210520FEF746FE0D210520FEF742FE4F
:101E80000E210520FEF73EFE0F210520FEF73AFE4B
:101E900000208DF810008DF812004FF47040039070
:101EA00000208DF8130003A91048FEF713FD4FF42E
:101EB0007040019001208DF80A0000208DF8080084
:101EC0000C208DF8090001A8FEF70EFC28208DF8E3
:101ED000000001208DF803008DF8010000208DF82E
:101EE00002006846FEF774FD05B000BD0014024014
:101EF000F0B504460D4616461F462B463246294687
:101F00002046FFF7FFF93B46224629462046FFF7C9
:101F1000F9F93B46324639462046FFF7F3F93B468E
:101F2000324629463046FFF7EDF9F0BD30B503469D
:101F30000C4615461948008849F24131884212D1B1
:101F400017480088174908801812891C0880D8B2E1
:101F5000088015480088891E08802012891C088086
:101F6000E0B2088012E011480078012804D110483E
:101F70000088401EC01A83B2194609480088FFF73E
:101F8000E5F8214608480088FFF7E0F8094800888E
:101F900004490880881C058030BD000074000020C2
:101FA0007E000020FE1F006C8000002076000020D4
:101FB000780000207C000020024800880249088048
:101FC000704700007C000020FE1F006CF8B504463E
:101FD0004FF6FF7000902588267A3544002D01DAEF
:101FE00000250BE02588267A3544B5F5A07F02DD73
:101FF0004FF4A07502E02588267A3544ABB2658897
:10200000E6883544002D01DA002509E06588E68878
:102010003544F02D01DDF02502E06588E688354481
:10202000AAB22588002D01DA002507E02588B5F53C
:10203000A07F02DD4FF4A07500E025882946658861
:10204000002D01DA002505E06588F02D01DDF02581
:1020500000E065882846FFF7C3FEF8BD70B504466A
:102060002588267A3544002D01DA00250BE02588E5
:10207000267A3544B5F5A07F02DD4FF4A07502E065
:102080002588267A3544ABB26588E6883544002D2C
:1020900001DA002509E06588E6883544F02D01DD88
:1020A000F02502E06588E6883544AAB225886D1ED1
:1020B000002D01D5002509E025886D1EB5F5A07F0E
:1020C00002DD4FF4A07501E025886D1EA9B2658878
:1020D0006D1E002D01D5002507E065886D1EF02DD1
:1020E00001DDF02501E065886D1EA8B2FFF700FF55
:1020F00070BD7CB505460C4600208DF8040001201B
:102100008DF806008DF8070003208DF80500009477
:1021100069462846FEF7DEFB7CBD000010B54FF493
:1021200000712848FEF741FC274908704FF4006110
:102130002448FEF73AFC2449487040212348FEF722
:1021400034FC2149887020212148FEF72EFC1E49CD
:10215000C87040211E48FEF728FC1B490871402129
:102160001C48FEF722FC184948714FF48071194849
:10217000FEF71BFC1449887108211748FEF715FC6F
:102180001149C87100201549087000BF11E01349BA
:1021900009784910114A11700B49095C09B1802175
:1021A00000E000210D4A127811430C4A1170411CC5
:1021B000C8B20828EBDB04480949086007480078E2
:1021C00010BD00000008024085000020000402400D
:1021D0000010024000000240000C02408D00002070
:1021E000080000202DE9F04F05460C4616461F4614
:1021F000DDE90BABDDE909984848006800EB800099
:10220000474901EBC000C0F80C80B8F1000F12D0B4
:102210004249096801EB8101414A02EBC101C868EA
:1022200000F080F83D49096801EB81013C4A02EB6E
:10223000C101086108E000203849096801EB81010B
:10224000374A02EBC10108613448006800EB8000A6
:10225000334901EBC000008A48443049096801EB6A
:1022600081012F4A02EBC10188802C48006800EBF5
:102270008000114601EBC00045612848006800EB72
:10228000800001EBC0000472204604EBD071C1F362
:102290004701224A126802EB8202214B03EBC20281
:1022A00051721E48006800EB8000194621F830602A
:1022B0001A48006800EB800001EBC000C0F820B0B5
:1022C0001648006800EB800001EBC000478013480F
:1022D000006800EB800001EBC00080F81CA00F48F4
:1022E000006800EB800001EBC00080880B490968A2
:1022F00001EB81011A4602EBC101497A48430749C3
:10230000096801EB810102EBC101C8800348006844
:10231000401C02490860BDE8F08F00006C000020FE
:10232000D40000200146002000E0401C11F8013BD1
:10233000002BFAD17047000070B504460D46FDB978
:1023400024B1012C0AD0022C19D10FE008211D481C
:10235000FEF736FB00201C49087010E010211948D8
:10236000FEF72EFB00201849487008E04FF400717A
:102370001648FEF725FB00201349887000BF1FE0B8
:1023800024B1012C0AD0022C19D10FE008210D48EC
:10239000FEF714FB01200C49087010E010210948D9
:1023A000FEF70CFB01200849487008E04FF400716B
:1023B0000648FEF703FB01200349887000BF00BFF9
:1023C00070BD000000100240820000200018024092
:1023D00008B500200090FFF761FA01210020FEF708
:1023E000B5FE322000F02CFC0020FEF7F9FDFE497E
:1023F000088008460088FF280ADB084600884FF658
:10240000FF71884204D0F8480088B0F5134F1DD101
:10241000D320F6490880881C0088F3490880F348D7
:10242000801C00880880F148801C008808800846CD
:1024300000884FF6FF7101EA0020EB490880EB4865
:10244000801C008809880843E7490880E64800881E
:1024500049F2413188421CD1E548006820F00F0064
:102460004FF02041C1F81C010846D0F81C0120F4AF
:102470007060C1F81C010846D0F81C0140F0030050
:10248000C1F81C010846D0F81C0140F40070C1F8E6
:102490001C01D548008849F2283188427ED141F29A
:1024A0008F01EC20FEF752FE41F23421EF20FEF7BF
:1024B0004DFE4FF480710120FEF748FE4FF4E061BD
:1024C0000220FEF743FE41F230010320FEF73EFEFC
:1024D00000210420FEF73AFE40F202210820FEF718
:1024E00035FE00210920FEF731FE00210A20FEF70B
:1024F0002DFE01210C20FEF729FE00210D20FEF704
:1025000025FE00210F20FEF721FE00211020FEF7FE
:102510001DFE07211120FEF719FE00211220FEF7F3
:1025200015FE00211320FEF711FE01210720FEF702
:102530000DFE322000F084FB41F290411020FEF7A6
:1025400005FE40F227211120FEF700FE322000F0A8
:1025500077FB8A211220FEF7F9FD322000F070FB94
:102560004FF4D0511320FEF7F1FD06212920FEF78C
:10257000EDFD0D212B20FEF7E9FD322000F060FB80
:1025800000212020FEF7E2FD00212120FEF7DEFDE4
:10259000322000F055FB0021302000E074E0FEF70F
:1025A000D5FD40F204613120FEF7D0FD40F2053147
:1025B0003220FEF7CBFD00213520FEF7C7FD40F6A7
:1025C00009413620FEF7C2FD4FF401713720FEF7B6
:1025D000BDFD40F201313820FEF7B8FD40F2077131
:1025E0003920FEF7B3FD00213C20FEF7AFFD40F699
:1025F0000A213D20FEF7AAFD322000F021FB002138
:102600005020FEF7A3FDEF215120FEF79FFD002192
:102610005220FEF79BFD40F23F115320FEF796FD3E
:102620004FF427416020FEF791FD01216120FEF764
:102630008DFD00216A20FEF789FD00218020FEF734
:1026400085FD00218120FEF781FD00218220FEF71B
:102650007DFD00218320FEF779FD00218420FEF717
:1026600075FD00218520FEF771FD10219020FEF7F9
:102670006DFD4FF4C0619220FEF768FD40F233110A
:102680000720FEF763FDC4E15748008849F2253171
:1026900088427DD147F6F001E520FEF757FD4FF463
:1026A00080710120FEF752FD4FF4E0610220FEF739
:1026B0004DFD41F230010320FEF748FD00210420CA
:1026C000FEF744FD40F202210820FEF73FFD002105
:1026D0000920FEF73BFD00210A20FEF737FD00210F
:1026E0000C20FEF733FD00210D20FEF72FFD002109
:1026F0000F20FEF72BFD00211020FEF727FD0721FC
:102700001120FEF723FD00211220FEF71FFD0021FE
:102710001320FEF71BFD00210720FEF717FD41F2F5
:1027200090611020FEF712FD40F227211120FEF7E4
:102730000DFD9D211220FEF709FD4FF4C851132015
:10274000FEF704FD25212920FEF700FD0D212B2099
:10275000FEF7FCFC07213020FEF7F8FC40F20331C5
:102760003120FEF7F3FC03213220FEF7EFFC40F2AC
:1027700006213520FEF7EAFC08213620FEF7E6FCAC
:1027800040F206413720FEF7E1FC4FF4417100E0D2
:102790005FE03820FEF7DAFC07213920FEF7D6FC8F
:1027A00040F202613C20FEF7D1FC08213D20FEF7FB
:1027B000CDFC00215020FEF7C9FCEF215120FEF78F
:1027C000C5FC00215220FEF7C1FC40F23F1153200E
:1027D000FEF7BCFC4FF427416020FEF7B7FC012157
:1027E0006120FEF7B3FC05E074000020FE1F006CC2
:1027F0001C0100A000216A20FEF7A8FC0021802017
:10280000FEF7A4FC00218120FEF7A0FC002182201D
:10281000FEF79CFC00218320FEF798FC0021842019
:10282000FEF794FC00218520FEF790FC10219020FB
:10283000FEF78CFC4FF4C0619220FEF787FC40F25B
:1028400033110720FEF782FC22210020FEF77EFCD8
:10285000DFE07548008849F241318842F8D1CF2045
:10286000724908800020891C0880C120088030201F
:102870000880ED20891E08806420891C08800320C0
:1028800008801220088081200880E820891E0880A6
:102890008520891C0880102008807A200880CB20A1
:1028A000891E08803920891C08802C20088000207F
:1028B00008803420088002200880F720891E0880C4
:1028C0002020891C0880EA20891E08800020891C9D
:1028D00008800880C020891E08801B20891C088071
:1028E000C120891E08800120891C0880C520891EFE
:1028F00008803020891C08800880C720891E088035
:10290000B720891C08803620891E08804820891C31
:1029100008803A20891E08805520891C0880B12033
:10292000891E08800020891C08801A200880B62093
:10293000891E08800A20891C0880A2200880F220B5
:10294000891E08800020891C08802620891E088096
:102950000120891C0880E020891E08800F20891C26
:1029600008802A20088028200880082008800E205F
:1029700008800820088054200880A920088043206F
:1029800008800A2008800F20088000200880088026
:1029900008800880E120891E08800020891C0880AA
:1029A0001520088017200880072008801120088043
:1029B000062008802B200880562008803C200880B4
:1029C00005200880102008800F2008803F20088004
:1029D00008800F2008802B20891E08800020891C79
:1029E00008800880012008803F2008802A20891E56
:1029F00008800020891C088008800880EF2008805B
:102A00001120891E0880782000F01AF92920074932
:102A100008800020FEF7E6FE0120054908604FF619
:102A2000FF7000F04DFA08BD74000020FE1F006C1E
:102A3000A882424210B5002407E004EB8401054A55
:102A400002EBC100FFF7F6F9641C034800688442FA
:102A5000F3DB10BDD40000206C0000201CB5012168
:102A60001020FDF7FDFF01208DF8040000208DF8F7
:102A7000060003208DF805001820009069460B48D9
:102A8000FDF728FF4FF40070009069460848FDF7F5
:102A900021FF00210846FFF74FFC00210120FFF72E
:102AA0004BFC00210220FFF747FC1CBD0010024038
:102AB0000018024010B51F480078002839D01E4881
:102AC0000068012804DB00201B490860FEF70CFBAE
:102AD0001A480068022804DB002018490860FEF745
:102AE00046FA17480068042804DB002014490860EF
:102AF000FEF73CFA13480068142804DB0020114953
:102B0000086000F065FA10480068322804DB0020F5
:102B10000D49086000F05AFA0C480068B0F57A7F59
:102B200004DB00200949086000F05CF8002001493E
:102B3000087010BD38000020200000202400002074
:102B4000280000202C00002030000020340000204D
:102B500010B501218803FDF7B3FF01210846FDF7F9
:102B60007FFF01210220FDF77BFF01210420FDF7FB
:102B700077FF01210820FDF773FF01211020FDF7E9
:102B80006FFF01212020FDF76BFF01214020FDF7A1
:102B900067FF01214804FDF783FF01218804FDF749
:102BA0007FFF0121C804FDF77BFF01210805FDF728
:102BB00077FF01210420FDF773FF01210220FDF7BB
:102BC0006FFF01210802FDF77BFF01218802FDF75D
:102BD00077FF01211020FDF773FF01212020FDF771
:102BE0006FFF10BD10B5FEF7BBFF0748016807A0D7
:102BF000FEF72EF90B4801680BA0FEF729F9022019
:102C000000F08AF910BD00009C0000206C6566741D
:102C1000456E636F646572436F756E743D25640A1B
:102C200000000000A00000207269676874456E63B0
:102C30006F646572436F756E743D25640A00000011
:102C400070B504464FF4077094FBF0F0C6B24FF431
:102C5000077094FBF0F100FB114085B205E04FF4E2
:102C6000077000F0C3F9701EC6B2002EF7D115B17F
:102C7000284600F0BBF970BD0146114A12784A435C
:102C80004FF0E0235A6100229A611A46126942F01D
:102C900001021A6100BF4FF0E022106900F001024A
:102CA0001AB100F48032002AF5D04FF0E022126908
:102CB00022F001024FF0E0231A6100229A6170476E
:102CC00000000020F0B501460020254D28700024AA
:102CD0000023002200BF2DE0012A1DD10D5C9DB90B
:102CE00003EB83056D0095FBF4F61D4D2F782D78D1
:102CF0006D1CDFF86CC08CF800501A4D45F8276049
:102D000000240023002213E00D5C012D10D1651C6E
:102D1000ECB21D18EBB20BE052B90D5C05B908E03E
:102D20000D5C012D04D10122651CECB21D18EBB223
:102D300000BF401C0828CFDB012A10D103EB830021
:102D4000400090FBF4F6064805780078401C044FDC
:102D50003870044840F82560002400230022F0BDAC
:102D600004000020B400002070B504460D461C4845
:102D700004801C4805804FF400411B48FDF71EFEEF
:102D800010211A48FDF71AFE40211948FDF716FEDA
:102D900080211848FDF712FE002C04DD1021134895
:102DA000FDF70EFE06E04FF400410F48FDF708FE68
:102DB000604204B2002D04DD80210E48FDF700FEC4
:102DC00005E040210A48FDF7FBFD684205B22146B7
:102DD0000948FDF7F4FF29460748FDF7F2FF70BDEB
:102DE000980000209A0000200018024000000240D5
:102DF00000080240000C02400004004000B58DB005
:102E000020200B9003208DF8300000208DF8330037
:102E10000BA91548FDF75EFD01210802FDF760FED4
:102E200000214FF48070FDF75BFE002007900A90B0
:102E300009904FF48030089007A8FDF7C9FB0020E7
:102E400001908DF808008DF809000390059001208D
:102E50008DF8180001A90548FDF7D2FB01210348B0
:102E6000FDF7AAFB0DB000BD0000024000200140AC
:102E700000B589B003208DF8200000208DF82300D4
:102E80001820079007A90C48FDF724FD00200190A9
:102E90008DF808008DF809000390059001208DF849
:102EA000180001A90548FDF7ABFB01210348FDF718
:102EB00083FB09B000BD0000001402400022014065
:102EC00070B504460025002609480088094909888C
:102ED00000FB01F600210846FEF76CFAFFF76CF8DC
:102EE00000BF02E0044804806D1CB542FAD370BDF7
:102EF000780000207A0000200020006C70B50546A4
:102F00000C4624B121462846FEF7DAFD02E02846A9
:102F1000FEF7F8FE70BD000010B504460548005DE0
:102F200008B9012000E0002001462046FFF704FA1E
:102F300010BD0000820000200EB50020ADF8080092
:102F4000ADF802005320ADF80000FF2001900020F2
:102F50008DF80A0069460448FDF736FF0121024852
:102F6000FDF74DFE0EBD0000000400401FB55320CC
:102F7000ADF8040040F2E73002900020ADF8060002
:102F8000ADF80C008DF80E0001A90F48FDF71CFFED
:102F900001210D48FDF733FE012211460A48FDF7D5
:102FA0004BFE4FF44070FDF74FFD1E208DF80000E2
:102FB00001208DF8030000208DF801008DF802003B
:102FC0006846FDF705FD1FBD000800407047000082
:102FD00010B5FFF72FFDFFF7A1F80348FFF772FECA
:102FE000002000F029F810BD850000200146114A9C
:102FF00012884A434FF0E0235A6100229A611A4630
:10300000126942F001021A6100BF4FF0E02210691C
:1030100000F001021AB100F48032002AF5D04FF01E
:10302000E022126922F001024FF0E0231A6100222F
:103030009A617047020000202DE9F0472DED028BC8
:103040000446394806683948076854B1364A126858
:1030500003461B68D11A01EBD17250102618271AAB
:1030600000BF0020324908603249086032480068D9
:10307000A0F123054FF0040808FB05F008602C4878
:103080000068096808442A4908602C4801780078DB
:10309000401C2A4A1070322917DD002011460870A2
:1030A0009FED278A00EE100A26480068281A00EED5
:1030B000100A24480560F8EEC00A68EE200AFDEE0A
:1030C000E00A2148C0ED000A00BF194800681E4907
:1030D00009680844164908601C48007801280ED188
:1030E00008460068A6EB00090846006807EB000ADE
:1030F0000FFA8AF10FFA89F0FFF736FE0FE0134856
:10310000007820B931B238B2FFF72EFE07E00F4841
:103110000078012803DD31B238B2FFF725FEBDEC9F
:10312000028BBDE8F0870000A00000209C0000207A
:103130001400002018000020B40000200C00002023
:1031400000002042100000201C000020040000208D
:1031500002E008C8121F08C1002AFAD17047704760
:10316000002001E001C1121F002AFBD170470000BE
:10317000FFF774FCFDF7FCFEFFF7EAFCFFF728F908
:10318000FFF7F4FEFEF71AF8FFF7D6FEFDF7E6FFAD
:10319000FFF764FC01210220FFF7CEF8FDF702FFE4
:1031A000FFF716F9FEF728FA0AA0FDF751FEFFF720
:1031B00025FEFFF75DFEFEF759FE0AA0FDF748FE6B
:1031C00040F2DC50FFF73CFDFEF730F901E0FFF77D
:1031D00071FCFCE741444320696E6974696E670ABB
:1031E00000000000496E697469616C697A65206647
:1031F000696E69736865640A0000000000000000E1
:103200000000000000000000000000003F4000003F
:1032100000000000000030004000300040000000CE
:1032200009000BC03D000BC03D00090018C0244040
:103230007FE0224031800000180024C01B000D8078
:103240003240018003801C4027401C800740004022
:1032500010006000000000000000000000000000FE
:1032600000001F80204040200000402020401F80A0
:1032700000000000090006001F8006000900000091
:10328000040004003F8004000400000000100060FF
:10329000000000000000000004000400040004001E
:1032A00004000000000000400000000000000000DA
:1032B000002001C006003800400000001F802040B0
:1032C000204020401F800000000010403FC0004010
:1032D0000000000018C02140224024401840000097
:1032E00010802040244024401B80000002000D007C
:1032F00011003FC0014000003C8024402440244095
:10330000238000001F8024402440344003800000BC
:103310003000200027C03800200000001B8024401F
:10332000244024401B8000001C0022C02240224078
:103330001F800000000000000840000000000000A6
:103340000000000004600000000000000000040015
:103350000A0011002080404009000900090009000E
:103360000900000000004040208011000A00040015
:103370001800200023402400180000001F80204077
:10338000274029401F400000004007C039000F00BF
:1033900001C0004020403FC0244024401B8000006A
:1033A0001F802040204020403080000020403FC04F
:1033B000204020401F80000020403FC024402E407D
:1033C00030C0000020403FC024402E0030000000EC
:1033D0000F001080204022403380020020403FC078
:1033E000040004003FC02040204020403FC0204057
:1033F000204000000060202020203FC0200020004E
:1034000020403FC024400B0030C0204020403FC03F
:1034100020400040004000C03FC03C0003C03C00D2
:103420003FC0000020403FC00C4023003FC02000B0
:103430001F802040204020401F80000020403FC0CF
:1034400024402400180000001F802140214020E07B
:103450001FA0000020403FC02440260019C00040AB
:1034600018C0244024402240318000003000204019
:103470003FC020403000000020003F80004000405E
:103480003F80200020003E0001C0070038002000DF
:10349000380007C03C0007C038000000204039C099
:1034A000060039C0204000002000384007C03840E6
:1034B00020000000304021C02640384020C00000DD
:1034C000000000007FE0402040200000000070006D
:1034D0000C000380004000000000402040207FE0FE
:1034E000000000000000200040002000000000005C
:1034F000001000100010001000100010000000006C
:10350000400000000000000000000280054005406F
:1035100003C0004020003FC004400440038000007E
:1035200000000380044004400640000000000380C7
:10353000044024403FC00040000003800540054097
:1035400003400000000004401FC02440244020002D
:10355000000002E0055005500650042020403FC006
:103560000440040003C000400000044027C00040A5
:103570000000000000100010041027E00000000010
:1035800020403FC00140070004C0044020402040CC
:103590003FC000400040000007C0040007C0040016
:1035A00003C00000044007C00440040003C0004002
:1035B000000003800440044003800000041007F072
:1035C00004500440038000000000038004400450C5
:1035D00007F00010044007C002400400040000008F
:1035E000000006400540054004C000000000040043
:1035F0001F80044000400000040007800040044099
:1036000007C000400400070004C001800600040059
:10361000060001C0070001C006000000044006C00B
:10362000010006C0044000000410071004E00180FF
:10363000060004000000044005C0064004400000ED
:103640000000000004007BE04020000000000000BB
:103650000000FFF000000000000040207BE00400BC
:1036600000000000400080004000200020004000DA
:10367000000000000000000000000000000000004A
:103680000000000000001FCC000C00000000000043
:1036900000000800300060000800300060000000FA
:1036A000022003FC1E20022003FC1E20022000003A
:1036B00000000E1811043FFF10840C780000000079
:1036C0000F0010840F3800C00778188400780000BD
:1036D00000780F8410C411240E9800E400840008C0
:1036E00008006800700000000000000000000000FA
:1036F00000000000000007E018182004400200004D
:10370000000040022004181807E00000000000003C
:103710000240024001800FF00180024002400000A0
:103720000080008000800FF8008000800080000092
:103730000001000D000E000000000000000000006D
:1037400000000080008000800080008000800080F9
:103750000000000C000C0000000000000000000051
:10376000000000060018006001800600180020001C
:10377000000007F0080810041004080807F0000013
:103780000000080408041FFC0004000400000000FE
:1037900000000E0C10141024104411840E0C0000B4
:1037A00000000C1810041104110412880C700000A1
:1037B000000000E00320042408241FFC0024000073
:1037C00000001F981084110411041088107000006C
:1037D000000007F008881104110418880070000028
:1037E00000001C00100010FC13001C001000000062
:1037F00000000E3811441084108411440E3800006B
:1038000000000700088C10441044088807F00000EE
:10381000000000000000030C030C0000000000008A
:103820000000000000010106000000000000000090
:10383000000000800140022004100808100400006D
:10384000022002200220022002200220022000008A
:10385000000010040808041002200140008000004D
:1038600000000E001200100C106C10800F00000001
:1038700003E00C1813E4142417C4082807D0000030
:103880000004003C03C41C40074000E4001C00048A
:1038900010041FFC1104110411040E8800700000B4
:1038A00003E00C1810041004100410081C10000091
:1038B00010041FFC100410041004080807F0000096
:1038C00010041FFC1104110417C410040818000090
:1038D00010041FFC1104110017C0100008000000A4
:1038E00003E00C181004100410441C780040000081
:1038F00010041FFC10840080008010841FFC100442
:103900000000100410041FFC10041004000000004C
:1039100000030001100110011FFE10001000000044
:1039200010041FFC110403801464181C1004000010
:1039300010041FFC1004000400040004000C00002C
:1039400010041FFC1F0000FC1F001FFC10040000DF
:1039500010041FFC0C04030000E010181FFC1000F2
:1039600007F00808100410041004080807F000000D
:1039700010041FFC10841080108010800F000000C5
:1039800007F0081810241024101C080A07F2000081
:1039900010041FFC1104110011C011300E0C0004A2
:1039A00000000E1C11041084108410441C38000008
:1039B0001800100010041FFC100410001800000074
:1039C00010001FF810040004000410041FF8100079
:1039D00010001E0011E0001C007013801C0010007D
:1039E0001FC0103C00E01F0000E0103C1FC00000A2
:1039F0001004180C163401C001C01634180C100441
:103A000010001C00130400FC13041C001000000034
:103A10000804101C1064108413041C041018000007
:103A20000000000000007FFE400240024002000053
:103A3000000030000C0003800060001C0003000048
:103A400000004002400240027FFE00000000000033
:103A50000000000020004000400040002000000066
:103A6000000100010001000100010001000100014E
:103A700000004000400020000000000000000000A6
:103A800000000098012401440144014400FC0004AA
:103A900010001FFC00880104010400880070000071
:103AA0000000007000880104010401040088000087
:103AB0000000007000880104010411081FFC0004CC
:103AC000000000F8014401440144014400C8000022
:103AD0000000010401040FFC11041104110018007E
:103AE000000000D601290129012901C901060000B1
:103AF00010041FFC008401000100010400FC00040C
:103B000000000104190419FC000400040000000076
:103B10000000000300010101190119FE000000006E
:103B200010041FFC0024004001B4010C010400003B
:103B30000000100410041FFC00040004000000003A
:103B4000010401FC0104010001FC0104010000FC6E
:103B5000010401FC008401000100010400FC0004D8
:103B6000000000F8010401040104010400F8000051
:103B7000010101FF008501040104008800700000BC
:103B800000000070008801040104010501FF00012C
:103B90000104010401FC0084010401000180000013
:103BA000000000CC0124012401240124019800001C
:103BB00000000100010007F80104010400000000FA
:103BC000010001F8000400040004010801FC0004E5
:103BD000010001800170000C0010016001800100F3
:103BE00001F0010C003001C00030010C01F00100B7
:103BF00000000104018C00740170018C01040000BC
:103C0000010101810171000E0018016001800100B5
:103C100000000184010C013401440184010C000006
:103C2000000000000000000001003EFC40024002D5
:103C30000000000000000000FFFF00000000000086
:103C40000000400240023EFC0100000000000000B5
:103C50000000600080008000400040002000200044
:103C60000000000000000000000000000000000054
:103C70000000000000000000000000000000000044
:103C80000000000000000000000000000000000034
:103C90000000000F80380FFE380F80380000000051
:103CA0000000000000000000000000000000010013
:103CB000000600000C000038000031000006000083
:103CC0000C00003800003000000000000000000080
:103CD00061800067F807F980006180006180006101
:103CE000800061800067F807F980006180000000B3
:103CF00000000000000001C0E003E0F0063008040E
:103D000018081FFFFE040E080787F00381E000007B
:103D10000000000001F000060C00040408060C700E
:103D200001F9C0000E00003BE000EC180708080491
:103D30000C180003E00000000001E00007F003F8A9
:103D400018041C0804170807E1D003C0E00023B0E2
:103D5000003C0800200800001000000000000001E6
:103D600000003100003200001C00000000000000D4
:103D70000000000000000000000000000000000043
:103D80000000000000000000000000000000000033
:103D90007F0001FFC00780F00C0018100004200015
:103DA000020000000000002000021000040C0018B7
:103DB0000780F001FFC0007F00000000000000004D
:103DC000000000000000000000000000420000664B
:103DD00000006600003C0000180003FFC00018004F
:103DE000003C000066000066000042000000000089
:103DF000080000080000080000080000080001FF9B
:103E0000C0000800000800000800000800000800CA
:103E100000000000000100003100003200001C0022
:103E20000000000000000000000000000000000092
:103E3000000000000000000008000008000008006A
:103E4000000800000800000800000800000800004A
:103E50000800000800000000000000000000000052
:103E600038000038000038000000000000000000AA
:103E70000000000000000000000000000000000042
:103E8000000600001C000070000180000E000038D9
:103E90000000C0000700001C00003000000000000F
:103EA000000000007F8001FFE0038070060018041E
:103EB000000804000806001803807001FFE0007F7E
:103EC0008000000000000000000001000801000860
:103ED00001000803FFF807FFF800000800000800D1
:103EE000000800000000000000000001C03802C00F
:103EF00058040098040118040218040418061C1839
:103F000003F81801E0F800000000000000000001C4
:103F1000C0E003C0F00400080408080408080618FC
:103F20000803F41801E7F00001E0000000000000C1
:103F3000000000000300000D0000110000610000FF
:103F4000810803010807FFF80FFFF80001080001CE
:103F5000080000000000000000E007FCD006080890
:103F6000061008061008061008061838060FF00696
:103F700007C0000000000000000000003F8001FFBB
:103F8000E003843002081804100804100804100824
:103F9000071810030FF00007C00000000000000029
:103FA000000003C0000700000600000600F8060736
:103FB000F806180006E000070000060000000000F8
:103FC00000000001E1E003F7F006341004180804D3
:103FD0001808040C08040C0806161803F3F001C1B5
:103FE000E000000000000000F80003FC3003063889
:103FF0000402080402080402080404100308F00183
:10400000FFC0007F00000000000000000000000072
:1040100000000000000000007038007038007038A8
:104020000000000000000000000000000000000090
:10403000000000000000000000000000301A003006
:104040001C00000000000000000000000000000054
:104050000000000000000008000014000022000022
:104060004100008080010040020020040010080090
:1040700008000000000000002100002100002100D5
:10408000002100002100002100002100002100008B
:1040900021000021000000000000000000000800D6
:1040A0000804001002002001004000808000410050
:1040B00000220000140000080000000000000003BF
:1040C000C00004C000040000080038080F380808C9
:1040D000380810000C300007E00003C000000000AA
:1040E000000000003F8000FFE0038070020F100618
:1040F000708804C088048308047F8802C09003018C
:104100002000FE400000080000180001F8003E08F2
:1041100001C20007020007E20000FE00001FC80005
:1041200001F800003800000804000807FFF807FF46
:10413000F804080804080804080804080806180811
:1041400003F41801E7F00001E000000000000000A7
:104150003F8001FFE00380700200180400080400A3
:10416000080400080400100600200780C0000000BA
:1041700004000807FFF807FFF8040008040008041B
:10418000000804001802001003807001FFE0007FA7
:104190008000000004000807FFF807FFF804080883
:1041A000040808040808040808043E080400080677
:1041B000001801006000000004000807FFF807FF76
:1041C000F8040808040800040800040800043E007D
:1041D0000600000600000180000000000000000052
:1041E0003F8001FFE003807006001804000804020D
:1041F000080402080203F00783F000020000020036
:1042000004000807FFF807FFF8040808000800008A
:10421000080000080000080004080807FFF807FF6E
:10422000F804000800000000000004000804000872
:1042300004000807FFF807FFF8040008040008045A
:104240000008000000000000000000000006000060
:104250000700000104000104000104000307FFFE41
:1042600007FFFC040000040000040000040008072D
:10427000FFF807FFF8040C08001800003E0004C710
:10428000800503C80600F804003804001800000880
:1042900004000807FFF807FFF80400080000080002
:1042A00000080000080000080000080000180000D6
:1042B0006000000004000807FFF807800807FC0002
:1042C000007FC00003F80007C000780007800807DF
:1042D000FFF807FFF804000804000807FFF80700CC
:1042E0000803C00000E000003800001E00000700C6
:1042F0000001C00400F007FFF80400000000000007
:104300007F8001FFE00380700600180400080400AD
:104310000806001803003001FFE0007F8000000065
:1043200004000807FFF807FFF80404080404000469
:104330000400040400040400060C0003F80001F06B
:1043400000000000000000007F8001FFE00380709B
:104350000600880400880400C806003C03003E01F3
:10436000FFE6007F8400000004000807FFF807FF55
:10437000F8040808040800040C00040F00040BC033
:104380000610F003F03801E008000008000000010A
:10439000E0F803F030063010041808041808040C84
:1043A00008040C080206180207F00781E00000006C
:1043B000018000060000040000040000040008075B
:1043C000FFF807FFF80400080400000400000600DE
:1043D0000001800004000007FFE007FFF004001860
:1043E00000000800000800000800000800000804A1
:1043F000001007FFE004000004000006000007E0D2
:104400000007FE00041FE00001F80000380001E092
:10441000043E0007C000060000040000040000077E
:10442000E00007FFC0041FF80007C007F80007FFFF
:1044300080043FF80007C004F800070000040000F3
:1044400000000004000806001807C07805F1C80045
:104450003E00001F800463E80780F806001804008F
:104460000800000004000006000007800007E008C4
:10447000047C08001FF80007F800180804E008078B
:104480000000060000040000000000010008060013
:10449000380400F80403E8040F08047C0805F00859
:1044A00007C00807001804006000000000000000BA
:1044B00000000000000000000000003FFFFE2000A0
:1044C0000220000220000220000220000200000062
:1044D00000000000000008000007000000C000000D
:1044E00038000006000001C000003000000E00008F
:1044F0000100000000000000000020000220000277
:104500002000022000022000023FFFFE0000000009
:10451000000000000000000000000000000000009B
:1045200000080000100000300000200000300000F3
:104530001000000800000000000000000000010062
:104540000001000001000001000001000001000066
:104550000100000100000100000100000100000155
:1045600000000000000000000020000020000010FB
:10457000000010000000000000000000000000002B
:10458000000000000000000000F00019F8001B18F7
:10459000002208002608002408002410003FF8002C
:1045A0001FF800000800001800000004000007FFCA
:1045B000F80FFFF00018180010080020080020086D
:1045C000003018001FF0000FC000000000000000C5
:1045D00007C0001FF000183000200800200800204D
:1045E00008003C08001C10000060000000000000F3
:1045F0000000000007C0001FF0003818002008006D
:10460000200800200804101007FFF80FFFF000003A
:10461000100000000000000000000007C0001FF0B4
:104620000012300022180022080022080032080080
:104630001E10000E200000000000000020000020DE
:104640000800200801FFF803FFF8062008042008EE
:104650000420080720000300000000000000000004
:10466000000E000E6E001FF30031B10020B10020DB
:10467000B1003191001F13002E1E00200E003000EB
:1046800000000004000807FFF80FFFF80010080002
:104690002000002000002008003FF8001FF8000064
:1046A00008000000000000000000002008002008B2
:1046B000002008063FF8063FF80000080000080048
:1046C00000080000000000000000000000000000E2
:1046D00003000003002001002001002003063FFE2C
:1046E000063FFC0000000000000000000000000485
:1046F000000807FFF80FFFF8000188000300002FF3
:10470000C00038F800203800200800000800000031
:10471000000000000000040008040008040008076E
:10472000FFF80FFFF8000008000008000008000074
:1047300000000000002008003FF8003FF8001008CB
:10474000002000003FF8003FF800100800200000A3
:104750003FF8003FF8000008000000002008003F7C
:10476000F8003FF8001008001000002000002008AA
:10477000003FF8001FF800000800000000000000E3
:1047800007C0000FF000183000300800200800209B
:1047900008003008001830000FF00007C0000000CB
:1047A000000000002001003FFF003FFF001011004B
:1047B0002009002008002008003038001FF0000FFA
:1047C000C00000000000000007C0001FF000381803
:1047D000002008002008002009001011001FFF0021
:1047E0003FFF00000100000000200800200800201A
:1047F00008003FF8003FF8000808001008002008F3
:104800000020000030000030000000000000000028
:104810000000000C78001E18003308002308002157
:10482000080021880021980030F000386000000066
:1048300000000000200000200000200000FFF00326
:10484000FFF80020080020080020080000300000C9
:1048500000000000000000002000003FF0007FF892
:10486000000018000008000008002010003FF800B9
:104870007FF0000010000000000000002000003069
:1048800000003C00003F800023F000007800007032
:10489000002380003C0000300000200000200000C9
:1048A0003C00003FE00023F80000E0002700003E4D
:1048B00000003FE00021F80001E0003E0000200081
:1048C000000000002008002008003838003E680082
:1048D00027800003C8002CF800383800201800207A
:1048E00008000000000000002000003003003C0130
:1048F000003F830023EC000070002380003C000098
:10490000200000200000000000000000000000382F
:10491000080020380020F80023E8002F88003E0817
:10492000003808002018000070000000000000009F
:10493000000000000000000000000000080000145B
:10494000001FF7FC300006200002000000000000FD
:104950000000000000000000000000000000000057
:104960000000FFFFFF00000000000000000000004A
:1049700000000000000000000000200002300006DF
:104980001FF7FC00140000080000000000000000F9
:10499000000000000000000000000018000060009F
:1049A000004000004000002000001000000800004F
:1049B0000400000400000C0000100000DC490008A6
:1049C00000000020B400000050310008904A0008A8
:1049D000B40000204407000060310008000000001F
:1049E00000000000000000000000000000000000C7
:1049F00000000000000000000000000000000000B7
:104A000000000000000000000000000000000000A6
:104A10000000000000000000000000000000000096
:104A20000000000000000000A000000000000000E6
:104A3000A0000000F00000000000000000000000E6
:104A40000000000000000000000000000000FFFF68
:104A50000000000000000000000000000000000056
:104A60000000000000000000000000000000000046
:104A70000000000000000000000000000000000036
:104A80000000000000000000000000000000000026
:040000050800018965
:00000001FF
